{
  "_format": "hh-sol-artifact-1",
  "contractName": "SolarEnergyTrading2",
  "sourceName": "contracts/solarEnergyTrading2.sol",
  "abi": [
    {
      "inputs": [
        {
          "internalType": "address",
          "name": "_producer",
          "type": "address"
        },
        {
          "internalType": "uint256",
          "name": "_perUnitPrice",
          "type": "uint256"
        }
      ],
      "stateMutability": "nonpayable",
      "type": "constructor"
    },
    {
      "inputs": [
        {
          "internalType": "address",
          "name": "",
          "type": "address"
        }
      ],
      "name": "consumer",
      "outputs": [
        {
          "internalType": "uint256",
          "name": "",
          "type": "uint256"
        }
      ],
      "stateMutability": "view",
      "type": "function"
    },
    {
      "inputs": [
        {
          "internalType": "uint256",
          "name": "_amount",
          "type": "uint256"
        },
        {
          "internalType": "uint256",
          "name": "_digit",
          "type": "uint256"
        }
      ],
      "name": "energyTrade",
      "outputs": [],
      "stateMutability": "payable",
      "type": "function"
    },
    {
      "inputs": [],
      "name": "getBalance",
      "outputs": [
        {
          "internalType": "uint256",
          "name": "",
          "type": "uint256"
        }
      ],
      "stateMutability": "view",
      "type": "function"
    },
    {
      "inputs": [],
      "name": "getReadings",
      "outputs": [
        {
          "components": [
            {
              "internalType": "uint256",
              "name": "voltage",
              "type": "uint256"
            },
            {
              "internalType": "uint256",
              "name": "current",
              "type": "uint256"
            }
          ],
          "internalType": "struct SolarEnergyTrading2.Readings[]",
          "name": "",
          "type": "tuple[]"
        }
      ],
      "stateMutability": "view",
      "type": "function"
    },
    {
      "inputs": [],
      "name": "getTradeSuccess",
      "outputs": [
        {
          "internalType": "bool",
          "name": "",
          "type": "bool"
        }
      ],
      "stateMutability": "view",
      "type": "function"
    },
    {
      "inputs": [],
      "name": "maxPowerTransfer",
      "outputs": [
        {
          "internalType": "uint256",
          "name": "",
          "type": "uint256"
        }
      ],
      "stateMutability": "view",
      "type": "function"
    },
    {
      "inputs": [],
      "name": "perUnitPrice",
      "outputs": [
        {
          "internalType": "uint256",
          "name": "",
          "type": "uint256"
        }
      ],
      "stateMutability": "view",
      "type": "function"
    },
    {
      "inputs": [],
      "name": "preDeposit",
      "outputs": [],
      "stateMutability": "payable",
      "type": "function"
    },
    {
      "inputs": [],
      "name": "producer",
      "outputs": [
        {
          "internalType": "address",
          "name": "",
          "type": "address"
        }
      ],
      "stateMutability": "view",
      "type": "function"
    },
    {
      "inputs": [
        {
          "internalType": "uint256",
          "name": "",
          "type": "uint256"
        }
      ],
      "name": "readings",
      "outputs": [
        {
          "internalType": "uint256",
          "name": "voltage",
          "type": "uint256"
        },
        {
          "internalType": "uint256",
          "name": "current",
          "type": "uint256"
        }
      ],
      "stateMutability": "view",
      "type": "function"
    },
    {
      "inputs": [
        {
          "internalType": "uint256",
          "name": "_voltage",
          "type": "uint256"
        },
        {
          "internalType": "uint256",
          "name": "_current",
          "type": "uint256"
        }
      ],
      "name": "storeReadings",
      "outputs": [],
      "stateMutability": "nonpayable",
      "type": "function"
    },
    {
      "inputs": [],
      "name": "thresholdValue",
      "outputs": [
        {
          "internalType": "uint256",
          "name": "",
          "type": "uint256"
        }
      ],
      "stateMutability": "view",
      "type": "function"
    },
    {
      "inputs": [],
      "name": "tradeSuccess",
      "outputs": [
        {
          "internalType": "bool",
          "name": "",
          "type": "bool"
        }
      ],
      "stateMutability": "view",
      "type": "function"
    },
    {
      "stateMutability": "payable",
      "type": "receive"
    }
  ],
  "bytecode": "0x60806040523480156200001157600080fd5b50604051620011a4380380620011a483398181016040528101906200003791906200012c565b81600160006101000a81548173ffffffffffffffffffffffffffffffffffffffff021916908373ffffffffffffffffffffffffffffffffffffffff16021790555080600481905550505062000173565b600080fd5b600073ffffffffffffffffffffffffffffffffffffffff82169050919050565b6000620000b9826200008c565b9050919050565b620000cb81620000ac565b8114620000d757600080fd5b50565b600081519050620000eb81620000c0565b92915050565b6000819050919050565b6200010681620000f1565b81146200011257600080fd5b50565b6000815190506200012681620000fb565b92915050565b6000806040838503121562000146576200014562000087565b5b60006200015685828601620000da565b9250506020620001698582860162000115565b9150509250929050565b61102180620001836000396000f3fe6080604052600436106100c65760003560e01c8063749e9a5d1161007f578063d5da886d11610059578063d5da886d14610232578063ddb02afc14610270578063de69b6ac1461028c578063eb00bf36146102c9576100cd565b8063749e9a5d146101b15780638a8f2846146101dc5780638ac4755214610207576100cd565b806312065fe0146100d25780631563dcf1146100fd578063308d7f19146101285780633761267214610151578063488a64f01461017c57806368ef46de146101a7576100cd565b366100cd57005b600080fd5b3480156100de57600080fd5b506100e76102f4565b6040516100f49190610a9a565b60405180910390f35b34801561010957600080fd5b506101126103bc565b60405161011f9190610ba2565b60405180910390f35b34801561013457600080fd5b5061014f600480360381019061014a9190610bf5565b61042f565b005b34801561015d57600080fd5b50610166610489565b6040516101739190610c76565b60405180910390f35b34801561018857600080fd5b506101916104af565b60405161019e9190610a9a565b60405180910390f35b6101af6104b5565b005b3480156101bd57600080fd5b506101c66106f8565b6040516101d39190610a9a565b60405180910390f35b3480156101e857600080fd5b506101f16106fe565b6040516101fe9190610cac565b60405180910390f35b34801561021357600080fd5b5061021c610711565b6040516102299190610a9a565b60405180910390f35b34801561023e57600080fd5b5061025960048036038101906102549190610cc7565b610717565b604051610267929190610cf4565b60405180910390f35b61028a60048036038101906102859190610bf5565b61074b565b005b34801561029857600080fd5b506102b360048036038101906102ae9190610d49565b610a52565b6040516102c09190610a9a565b60405180910390f35b3480156102d557600080fd5b506102de610a6a565b6040516102eb9190610cac565b60405180910390f35b600080600660003373ffffffffffffffffffffffffffffffffffffffff1673ffffffffffffffffffffffffffffffffffffffff1681526020019081526020016000205403610377576040517f08c379a000000000000000000000000000000000000000000000000000000000815260040161036e90610dd3565b60405180910390fd5b600660003373ffffffffffffffffffffffffffffffffffffffff1673ffffffffffffffffffffffffffffffffffffffff16815260200190815260200160002054905090565b60606000805480602002602001604051908101604052809291908181526020016000905b82821015610426578382906000526020600020906002020160405180604001604052908160008201548152602001600182015481525050815260200190600101906103e0565b50505050905090565b60006040518060400160405280848152602001838152509080600181540180825580915050600190039060005260206000209060020201600090919091909150600082015181600001556020820151816001015550505050565b600160009054906101000a900473ffffffffffffffffffffffffffffffffffffffff1681565b60035481565b6000600660003373ffffffffffffffffffffffffffffffffffffffff1673ffffffffffffffffffffffffffffffffffffffff16815260200190815260200160002054146106045734600660003373ffffffffffffffffffffffffffffffffffffffff1673ffffffffffffffffffffffffffffffffffffffff168152602001908152602001600020600082825461054b9190610e22565b9250508190555060003073ffffffffffffffffffffffffffffffffffffffff163460405161057890610e87565b60006040518083038185875af1925050503d80600081146105b5576040519150601f19603f3d011682016040523d82523d6000602084013e6105ba565b606091505b50509050806105fe576040517f08c379a00000000000000000000000000000000000000000000000000000000081526004016105f590610ee8565b60405180910390fd5b506106f6565b34600660003373ffffffffffffffffffffffffffffffffffffffff1673ffffffffffffffffffffffffffffffffffffffff1681526020019081526020016000208190555060003073ffffffffffffffffffffffffffffffffffffffff163460405161066e90610e87565b60006040518083038185875af1925050503d80600081146106ab576040519150601f19603f3d011682016040523d82523d6000602084013e6106b0565b606091505b50509050806106f4576040517f08c379a00000000000000000000000000000000000000000000000000000000081526004016106eb90610ee8565b60405180910390fd5b505b565b60025481565b600560009054906101000a900460ff1681565b60045481565b6000818154811061072757600080fd5b90600052602060002090600202016000915090508060000154908060010154905082565b6000600660003373ffffffffffffffffffffffffffffffffffffffff1673ffffffffffffffffffffffffffffffffffffffff16815260200190815260200160002054036107cd576040517f08c379a00000000000000000000000000000000000000000000000000000000081526004016107c490610f54565b60405180910390fd5b60008103610916576000600160009054906101000a900473ffffffffffffffffffffffffffffffffffffffff1673ffffffffffffffffffffffffffffffffffffffff168360405161081d90610e87565b60006040518083038185875af1925050503d806000811461085a576040519150601f19603f3d011682016040523d82523d6000602084013e61085f565b606091505b50509050806108a3576040517f08c379a000000000000000000000000000000000000000000000000000000000815260040161089a90610f97565b60405180910390fd5b82600660003373ffffffffffffffffffffffffffffffffffffffff1673ffffffffffffffffffffffffffffffffffffffff16815260200190815260200160002060008282546108f29190610fb7565b925050819055506001600560006101000a81548160ff021916908315150217905550505b60018103610a4e576000600160009054906101000a900473ffffffffffffffffffffffffffffffffffffffff1673ffffffffffffffffffffffffffffffffffffffff168360405161096690610e87565b60006040518083038185875af1925050503d80600081146109a3576040519150601f19603f3d011682016040523d82523d6000602084013e6109a8565b606091505b50509050806109ec576040517f08c379a00000000000000000000000000000000000000000000000000000000081526004016109e390610f97565b60405180910390fd5b6000600660003373ffffffffffffffffffffffffffffffffffffffff1673ffffffffffffffffffffffffffffffffffffffff168152602001908152602001600020819055506001600560006101000a81548160ff021916908315150217905550505b5050565b60066020528060005260406000206000915090505481565b6000600560009054906101000a900460ff16905090565b6000819050919050565b610a9481610a81565b82525050565b6000602082019050610aaf6000830184610a8b565b92915050565b600081519050919050565b600082825260208201905092915050565b6000819050602082019050919050565b610aea81610a81565b82525050565b604082016000820151610b066000850182610ae1565b506020820151610b196020850182610ae1565b50505050565b6000610b2b8383610af0565b60408301905092915050565b6000602082019050919050565b6000610b4f82610ab5565b610b598185610ac0565b9350610b6483610ad1565b8060005b83811015610b95578151610b7c8882610b1f565b9750610b8783610b37565b925050600181019050610b68565b5085935050505092915050565b60006020820190508181036000830152610bbc8184610b44565b905092915050565b600080fd5b610bd281610a81565b8114610bdd57600080fd5b50565b600081359050610bef81610bc9565b92915050565b60008060408385031215610c0c57610c0b610bc4565b5b6000610c1a85828601610be0565b9250506020610c2b85828601610be0565b9150509250929050565b600073ffffffffffffffffffffffffffffffffffffffff82169050919050565b6000610c6082610c35565b9050919050565b610c7081610c55565b82525050565b6000602082019050610c8b6000830184610c67565b92915050565b60008115159050919050565b610ca681610c91565b82525050565b6000602082019050610cc16000830184610c9d565b92915050565b600060208284031215610cdd57610cdc610bc4565b5b6000610ceb84828501610be0565b91505092915050565b6000604082019050610d096000830185610a8b565b610d166020830184610a8b565b9392505050565b610d2681610c55565b8114610d3157600080fd5b50565b600081359050610d4381610d1d565b92915050565b600060208284031215610d5f57610d5e610bc4565b5b6000610d6d84828501610d34565b91505092915050565b600082825260208201905092915050565b7f4e6f20416d6f756e74204465706f736974656400000000000000000000000000600082015250565b6000610dbd601383610d76565b9150610dc882610d87565b602082019050919050565b60006020820190508181036000830152610dec81610db0565b9050919050565b7f4e487b7100000000000000000000000000000000000000000000000000000000600052601160045260246000fd5b6000610e2d82610a81565b9150610e3883610a81565b9250828201905080821115610e5057610e4f610df3565b5b92915050565b600081905092915050565b50565b6000610e71600083610e56565b9150610e7c82610e61565b600082019050919050565b6000610e9282610e64565b9150819050919050565b7f4661696c656420746f206465706f736974206d6f6e6579210000000000000000600082015250565b6000610ed2601883610d76565b9150610edd82610e9c565b602082019050919050565b60006020820190508181036000830152610f0181610ec5565b9050919050565b7f4e6f7420656e6f75676820657468000000000000000000000000000000000000600082015250565b6000610f3e600e83610d76565b9150610f4982610f08565b602082019050919050565b60006020820190508181036000830152610f6d81610f31565b9050919050565b6000610f81600083610d76565b9150610f8c82610e61565b600082019050919050565b60006020820190508181036000830152610fb081610f74565b9050919050565b6000610fc282610a81565b9150610fcd83610a81565b9250828203905081811115610fe557610fe4610df3565b5b9291505056fea2646970667358221220c857079b4a1479455a7d63d21323cb888030adcdd22cc2a31d102a563c54b34e64736f6c63430008110033",
  "linkReferences": {},
  "deployedLinkReferences": {}
}