{
  "_format": "hh-sol-artifact-1",
  "contractName": "SolarEnergyTrading2",
  "sourceName": "contracts/solarEnergyTrading2.sol",
  "abi": [
    {
      "inputs": [
        {
          "internalType": "address",
          "name": "_producer",
          "type": "address"
        },
        {
          "internalType": "uint256",
          "name": "_perUnitPrice",
          "type": "uint256"
        }
      ],
      "stateMutability": "nonpayable",
      "type": "constructor"
    },
    {
      "inputs": [
        {
          "internalType": "address",
          "name": "",
          "type": "address"
        }
      ],
      "name": "consumer",
      "outputs": [
        {
          "internalType": "uint256",
          "name": "",
          "type": "uint256"
        }
      ],
      "stateMutability": "view",
      "type": "function"
    },
    {
      "inputs": [
        {
          "internalType": "uint256",
          "name": "_meterValue",
          "type": "uint256"
        }
      ],
      "name": "energyTrade",
      "outputs": [],
      "stateMutability": "payable",
      "type": "function"
    },
    {
      "inputs": [],
      "name": "getBalance",
      "outputs": [
        {
          "internalType": "uint256",
          "name": "",
          "type": "uint256"
        }
      ],
      "stateMutability": "view",
      "type": "function"
    },
    {
      "inputs": [],
      "name": "getReadings",
      "outputs": [
        {
          "components": [
            {
              "internalType": "uint256",
              "name": "voltage",
              "type": "uint256"
            },
            {
              "internalType": "uint256",
              "name": "current",
              "type": "uint256"
            }
          ],
          "internalType": "struct SolarEnergyTrading2.Readings[]",
          "name": "",
          "type": "tuple[]"
        }
      ],
      "stateMutability": "view",
      "type": "function"
    },
    {
      "inputs": [],
      "name": "getTradeSuccess",
      "outputs": [
        {
          "internalType": "bool",
          "name": "",
          "type": "bool"
        }
      ],
      "stateMutability": "view",
      "type": "function"
    },
    {
      "inputs": [],
      "name": "maxPowerTransfer",
      "outputs": [
        {
          "internalType": "uint256",
          "name": "",
          "type": "uint256"
        }
      ],
      "stateMutability": "view",
      "type": "function"
    },
    {
      "inputs": [],
      "name": "perUnitPrice",
      "outputs": [
        {
          "internalType": "uint256",
          "name": "",
          "type": "uint256"
        }
      ],
      "stateMutability": "view",
      "type": "function"
    },
    {
      "inputs": [],
      "name": "preDeposit",
      "outputs": [],
      "stateMutability": "payable",
      "type": "function"
    },
    {
      "inputs": [],
      "name": "producer",
      "outputs": [
        {
          "internalType": "address",
          "name": "",
          "type": "address"
        }
      ],
      "stateMutability": "view",
      "type": "function"
    },
    {
      "inputs": [
        {
          "internalType": "uint256",
          "name": "",
          "type": "uint256"
        }
      ],
      "name": "readings",
      "outputs": [
        {
          "internalType": "uint256",
          "name": "voltage",
          "type": "uint256"
        },
        {
          "internalType": "uint256",
          "name": "current",
          "type": "uint256"
        }
      ],
      "stateMutability": "view",
      "type": "function"
    },
    {
      "inputs": [
        {
          "internalType": "uint256",
          "name": "_voltage",
          "type": "uint256"
        },
        {
          "internalType": "uint256",
          "name": "_current",
          "type": "uint256"
        }
      ],
      "name": "storeReadings",
      "outputs": [],
      "stateMutability": "nonpayable",
      "type": "function"
    },
    {
      "inputs": [],
      "name": "thresholdValue",
      "outputs": [
        {
          "internalType": "uint256",
          "name": "",
          "type": "uint256"
        }
      ],
      "stateMutability": "view",
      "type": "function"
    },
    {
      "inputs": [],
      "name": "tradeSuccess",
      "outputs": [
        {
          "internalType": "bool",
          "name": "",
          "type": "bool"
        }
      ],
      "stateMutability": "view",
      "type": "function"
    },
    {
      "stateMutability": "payable",
      "type": "receive"
    }
  ],
  "bytecode": "0x60806040523480156200001157600080fd5b50604051620010083803806200100883398181016040528101906200003791906200012c565b81600160006101000a81548173ffffffffffffffffffffffffffffffffffffffff021916908373ffffffffffffffffffffffffffffffffffffffff16021790555080600481905550505062000173565b600080fd5b600073ffffffffffffffffffffffffffffffffffffffff82169050919050565b6000620000b9826200008c565b9050919050565b620000cb81620000ac565b8114620000d757600080fd5b50565b600081519050620000eb81620000c0565b92915050565b6000819050919050565b6200010681620000f1565b81146200011257600080fd5b50565b6000815190506200012681620000fb565b92915050565b6000806040838503121562000146576200014562000087565b5b60006200015685828601620000da565b9250506020620001698582860162000115565b9150509250929050565b610e8580620001836000396000f3fe6080604052600436106100c65760003560e01c806368ef46de1161007f5780638ac47552116100595780638ac4755214610223578063d5da886d1461024e578063de69b6ac1461028c578063eb00bf36146102c9576100cd565b806368ef46de146101c3578063749e9a5d146101cd5780638a8f2846146101f8576100cd565b806312065fe0146100d25780631563dcf1146100fd578063299e8adc14610128578063308d7f1914610144578063376126721461016d578063488a64f014610198576100cd565b366100cd57005b600080fd5b3480156100de57600080fd5b506100e76102f4565b6040516100f4919061095c565b60405180910390f35b34801561010957600080fd5b506101126103bc565b60405161011f9190610a64565b60405180910390f35b610142600480360381019061013d9190610ab7565b61042f565b005b34801561015057600080fd5b5061016b60048036038101906101669190610ae4565b610748565b005b34801561017957600080fd5b506101826107a2565b60405161018f9190610b65565b60405180910390f35b3480156101a457600080fd5b506101ad6107c8565b6040516101ba919061095c565b60405180910390f35b6101cb6107ce565b005b3480156101d957600080fd5b506101e26108c1565b6040516101ef919061095c565b60405180910390f35b34801561020457600080fd5b5061020d6108c7565b60405161021a9190610b9b565b60405180910390f35b34801561022f57600080fd5b506102386108da565b604051610245919061095c565b60405180910390f35b34801561025a57600080fd5b5061027560048036038101906102709190610ab7565b6108e0565b604051610283929190610bb6565b60405180910390f35b34801561029857600080fd5b506102b360048036038101906102ae9190610c0b565b610914565b6040516102c0919061095c565b60405180910390f35b3480156102d557600080fd5b506102de61092c565b6040516102eb9190610b9b565b60405180910390f35b600080600660003373ffffffffffffffffffffffffffffffffffffffff1673ffffffffffffffffffffffffffffffffffffffff1681526020019081526020016000205403610377576040517f08c379a000000000000000000000000000000000000000000000000000000000815260040161036e90610c95565b60405180910390fd5b600660003373ffffffffffffffffffffffffffffffffffffffff1673ffffffffffffffffffffffffffffffffffffffff16815260200190815260200160002054905090565b60606000805480602002602001604051908101604052809291908181526020016000905b82821015610426578382906000526020600020906002020160405180604001604052908160008201548152602001600182015481525050815260200190600101906103e0565b50505050905090565b6000600660003373ffffffffffffffffffffffffffffffffffffffff1673ffffffffffffffffffffffffffffffffffffffff1681526020019081526020016000205414610745576000600660003373ffffffffffffffffffffffffffffffffffffffff1673ffffffffffffffffffffffffffffffffffffffff1681526020019081526020016000205490506000600454836104ca9190610ce4565b905081811015610612576000600160009054906101000a900473ffffffffffffffffffffffffffffffffffffffff1673ffffffffffffffffffffffffffffffffffffffff168260405161051c90610d57565b60006040518083038185875af1925050503d8060008114610559576040519150601f19603f3d011682016040523d82523d6000602084013e61055e565b606091505b50509050806105a2576040517f08c379a000000000000000000000000000000000000000000000000000000000815260040161059990610d8f565b60405180910390fd5b81836105ae9190610daf565b600660003373ffffffffffffffffffffffffffffffffffffffff1673ffffffffffffffffffffffffffffffffffffffff168152602001908152602001600020819055506001600560006101000a81548160ff02191690831515021790555050610742565b6000600160009054906101000a900473ffffffffffffffffffffffffffffffffffffffff1673ffffffffffffffffffffffffffffffffffffffff168360405161065a90610d57565b60006040518083038185875af1925050503d8060008114610697576040519150601f19603f3d011682016040523d82523d6000602084013e61069c565b606091505b50509050806106e0576040517f08c379a00000000000000000000000000000000000000000000000000000000081526004016106d790610d8f565b60405180910390fd5b6000600660003373ffffffffffffffffffffffffffffffffffffffff1673ffffffffffffffffffffffffffffffffffffffff168152602001908152602001600020819055506001600560006101000a81548160ff021916908315150217905550505b50505b50565b60006040518060400160405280848152602001838152509080600181540180825580915050600190039060005260206000209060020201600090919091909150600082015181600001556020820151816001015550505050565b600160009054906101000a900473ffffffffffffffffffffffffffffffffffffffff1681565b60035481565b34600660003373ffffffffffffffffffffffffffffffffffffffff1673ffffffffffffffffffffffffffffffffffffffff1681526020019081526020016000208190555060003073ffffffffffffffffffffffffffffffffffffffff163460405161083890610d57565b60006040518083038185875af1925050503d8060008114610875576040519150601f19603f3d011682016040523d82523d6000602084013e61087a565b606091505b50509050806108be576040517f08c379a00000000000000000000000000000000000000000000000000000000081526004016108b590610e2f565b60405180910390fd5b50565b60025481565b600560009054906101000a900460ff1681565b60045481565b600081815481106108f057600080fd5b90600052602060002090600202016000915090508060000154908060010154905082565b60066020528060005260406000206000915090505481565b6000600560009054906101000a900460ff16905090565b6000819050919050565b61095681610943565b82525050565b6000602082019050610971600083018461094d565b92915050565b600081519050919050565b600082825260208201905092915050565b6000819050602082019050919050565b6109ac81610943565b82525050565b6040820160008201516109c860008501826109a3565b5060208201516109db60208501826109a3565b50505050565b60006109ed83836109b2565b60408301905092915050565b6000602082019050919050565b6000610a1182610977565b610a1b8185610982565b9350610a2683610993565b8060005b83811015610a57578151610a3e88826109e1565b9750610a49836109f9565b925050600181019050610a2a565b5085935050505092915050565b60006020820190508181036000830152610a7e8184610a06565b905092915050565b600080fd5b610a9481610943565b8114610a9f57600080fd5b50565b600081359050610ab181610a8b565b92915050565b600060208284031215610acd57610acc610a86565b5b6000610adb84828501610aa2565b91505092915050565b60008060408385031215610afb57610afa610a86565b5b6000610b0985828601610aa2565b9250506020610b1a85828601610aa2565b9150509250929050565b600073ffffffffffffffffffffffffffffffffffffffff82169050919050565b6000610b4f82610b24565b9050919050565b610b5f81610b44565b82525050565b6000602082019050610b7a6000830184610b56565b92915050565b60008115159050919050565b610b9581610b80565b82525050565b6000602082019050610bb06000830184610b8c565b92915050565b6000604082019050610bcb600083018561094d565b610bd8602083018461094d565b9392505050565b610be881610b44565b8114610bf357600080fd5b50565b600081359050610c0581610bdf565b92915050565b600060208284031215610c2157610c20610a86565b5b6000610c2f84828501610bf6565b91505092915050565b600082825260208201905092915050565b7f4e6f20416d6f756e74204465706f736974656400000000000000000000000000600082015250565b6000610c7f601383610c38565b9150610c8a82610c49565b602082019050919050565b60006020820190508181036000830152610cae81610c72565b9050919050565b7f4e487b7100000000000000000000000000000000000000000000000000000000600052601160045260246000fd5b6000610cef82610943565b9150610cfa83610943565b9250828202610d0881610943565b91508282048414831517610d1f57610d1e610cb5565b5b5092915050565b600081905092915050565b50565b6000610d41600083610d26565b9150610d4c82610d31565b600082019050919050565b6000610d6282610d34565b9150819050919050565b6000610d79600083610c38565b9150610d8482610d31565b600082019050919050565b60006020820190508181036000830152610da881610d6c565b9050919050565b6000610dba82610943565b9150610dc583610943565b9250828203905081811115610ddd57610ddc610cb5565b5b92915050565b7f4661696c656420746f206465706f736974206d6f6e6579210000000000000000600082015250565b6000610e19601883610c38565b9150610e2482610de3565b602082019050919050565b60006020820190508181036000830152610e4881610e0c565b905091905056fea2646970667358221220f788420f627a4ffb87859e8d0310ad2e137ecfd470458af5c6b5a06e9ac03ec464736f6c63430008110033",
  "linkReferences": {},
  "deployedLinkReferences": {}
}