{
  "_format": "hh-sol-artifact-1",
  "contractName": "SolarEnergyTrading",
  "sourceName": "contracts/solarEnergyTrading.sol",
  "abi": [
    {
      "inputs": [
        {
          "internalType": "address",
          "name": "_producer",
          "type": "address"
        },
        {
          "internalType": "uint256",
          "name": "_perUnitPrice",
          "type": "uint256"
        }
      ],
      "stateMutability": "nonpayable",
      "type": "constructor"
    },
    {
      "inputs": [
        {
          "internalType": "address",
          "name": "",
          "type": "address"
        }
      ],
      "name": "consumer",
      "outputs": [
        {
          "internalType": "uint256",
          "name": "",
          "type": "uint256"
        }
      ],
      "stateMutability": "view",
      "type": "function"
    },
    {
      "inputs": [
        {
          "internalType": "uint256",
          "name": "_meterValue",
          "type": "uint256"
        }
      ],
      "name": "energyTrade",
      "outputs": [],
      "stateMutability": "payable",
      "type": "function"
    },
    {
      "inputs": [],
      "name": "getBalance",
      "outputs": [
        {
          "internalType": "uint256",
          "name": "",
          "type": "uint256"
        }
      ],
      "stateMutability": "view",
      "type": "function"
    },
    {
      "inputs": [],
      "name": "getReadings",
      "outputs": [
        {
          "components": [
            {
              "internalType": "uint256",
              "name": "voltage",
              "type": "uint256"
            },
            {
              "internalType": "uint256",
              "name": "current",
              "type": "uint256"
            }
          ],
          "internalType": "struct SolarEnergyTrading.Readings[]",
          "name": "",
          "type": "tuple[]"
        }
      ],
      "stateMutability": "view",
      "type": "function"
    },
    {
      "inputs": [],
      "name": "getTradeSuccess",
      "outputs": [
        {
          "internalType": "bool",
          "name": "",
          "type": "bool"
        }
      ],
      "stateMutability": "view",
      "type": "function"
    },
    {
      "inputs": [],
      "name": "maxPowerTransfer",
      "outputs": [
        {
          "internalType": "uint256",
          "name": "",
          "type": "uint256"
        }
      ],
      "stateMutability": "view",
      "type": "function"
    },
    {
      "inputs": [],
      "name": "perUnitPrice",
      "outputs": [
        {
          "internalType": "uint256",
          "name": "",
          "type": "uint256"
        }
      ],
      "stateMutability": "view",
      "type": "function"
    },
    {
      "inputs": [],
      "name": "preDeposit",
      "outputs": [],
      "stateMutability": "payable",
      "type": "function"
    },
    {
      "inputs": [],
      "name": "producer",
      "outputs": [
        {
          "internalType": "address",
          "name": "",
          "type": "address"
        }
      ],
      "stateMutability": "view",
      "type": "function"
    },
    {
      "inputs": [
        {
          "internalType": "uint256",
          "name": "",
          "type": "uint256"
        }
      ],
      "name": "readings",
      "outputs": [
        {
          "internalType": "uint256",
          "name": "voltage",
          "type": "uint256"
        },
        {
          "internalType": "uint256",
          "name": "current",
          "type": "uint256"
        }
      ],
      "stateMutability": "view",
      "type": "function"
    },
    {
      "inputs": [
        {
          "internalType": "uint256",
          "name": "_voltage",
          "type": "uint256"
        },
        {
          "internalType": "uint256",
          "name": "_current",
          "type": "uint256"
        }
      ],
      "name": "storeReadings",
      "outputs": [],
      "stateMutability": "nonpayable",
      "type": "function"
    },
    {
      "inputs": [],
      "name": "thresholdValue",
      "outputs": [
        {
          "internalType": "uint256",
          "name": "",
          "type": "uint256"
        }
      ],
      "stateMutability": "view",
      "type": "function"
    },
    {
      "inputs": [],
      "name": "tradeSuccess",
      "outputs": [
        {
          "internalType": "bool",
          "name": "",
          "type": "bool"
        }
      ],
      "stateMutability": "view",
      "type": "function"
    },
    {
      "stateMutability": "payable",
      "type": "receive"
    }
  ],
  "bytecode": "0x60806040523480156200001157600080fd5b5060405162000ca038038062000ca083398181016040528101906200003791906200012c565b81600160006101000a81548173ffffffffffffffffffffffffffffffffffffffff021916908373ffffffffffffffffffffffffffffffffffffffff16021790555080600481905550505062000173565b600080fd5b600073ffffffffffffffffffffffffffffffffffffffff82169050919050565b6000620000b9826200008c565b9050919050565b620000cb81620000ac565b8114620000d757600080fd5b50565b600081519050620000eb81620000c0565b92915050565b6000819050919050565b6200010681620000f1565b81146200011257600080fd5b50565b6000815190506200012681620000fb565b92915050565b6000806040838503121562000146576200014562000087565b5b60006200015685828601620000da565b9250506020620001698582860162000115565b9150509250929050565b610b1d80620001836000396000f3fe6080604052600436106100c65760003560e01c806368ef46de1161007f5780638ac47552116100595780638ac4755214610223578063d5da886d1461024e578063de69b6ac1461028c578063eb00bf36146102c9576100cd565b806368ef46de146101c3578063749e9a5d146101cd5780638a8f2846146101f8576100cd565b806312065fe0146100d25780631563dcf1146100fd578063299e8adc14610128578063308d7f1914610144578063376126721461016d578063488a64f014610198576100cd565b366100cd57005b600080fd5b3480156100de57600080fd5b506100e76102f4565b6040516100f49190610694565b60405180910390f35b34801561010957600080fd5b506101126102fc565b60405161011f919061079c565b60405180910390f35b610142600480360381019061013d91906107ef565b61036f565b005b34801561015057600080fd5b5061016b6004803603810190610166919061081c565b610480565b005b34801561017957600080fd5b506101826104da565b60405161018f919061089d565b60405180910390f35b3480156101a457600080fd5b506101ad610500565b6040516101ba9190610694565b60405180910390f35b6101cb610506565b005b3480156101d957600080fd5b506101e26105f9565b6040516101ef9190610694565b60405180910390f35b34801561020457600080fd5b5061020d6105ff565b60405161021a91906108d3565b60405180910390f35b34801561022f57600080fd5b50610238610612565b6040516102459190610694565b60405180910390f35b34801561025a57600080fd5b50610275600480360381019061027091906107ef565b610618565b6040516102839291906108ee565b60405180910390f35b34801561029857600080fd5b506102b360048036038101906102ae9190610943565b61064c565b6040516102c09190610694565b60405180910390f35b3480156102d557600080fd5b506102de610664565b6040516102eb91906108d3565b60405180910390f35b600047905090565b60606000805480602002602001604051908101604052809291908181526020016000905b8282101561036657838290600052602060002090600202016040518060400160405290816000820154815260200160018201548152505081526020019060010190610320565b50505050905090565b6000471461047d57600060045482610387919061099f565b905047811161047b576000600160009054906101000a900473ffffffffffffffffffffffffffffffffffffffff1673ffffffffffffffffffffffffffffffffffffffff16826040516103d890610a12565b60006040518083038185875af1925050503d8060008114610415576040519150601f19603f3d011682016040523d82523d6000602084013e61041a565b606091505b505090508061045e576040517f08c379a000000000000000000000000000000000000000000000000000000000815260040161045590610a5b565b60405180910390fd5b6001600560006101000a81548160ff021916908315150217905550505b505b50565b60006040518060400160405280848152602001838152509080600181540180825580915050600190039060005260206000209060020201600090919091909150600082015181600001556020820151816001015550505050565b600160009054906101000a900473ffffffffffffffffffffffffffffffffffffffff1681565b60035481565b34600660003373ffffffffffffffffffffffffffffffffffffffff1673ffffffffffffffffffffffffffffffffffffffff1681526020019081526020016000208190555060003073ffffffffffffffffffffffffffffffffffffffff163460405161057090610a12565b60006040518083038185875af1925050503d80600081146105ad576040519150601f19603f3d011682016040523d82523d6000602084013e6105b2565b606091505b50509050806105f6576040517f08c379a00000000000000000000000000000000000000000000000000000000081526004016105ed90610ac7565b60405180910390fd5b50565b60025481565b600560009054906101000a900460ff1681565b60045481565b6000818154811061062857600080fd5b90600052602060002090600202016000915090508060000154908060010154905082565b60066020528060005260406000206000915090505481565b6000600560009054906101000a900460ff16905090565b6000819050919050565b61068e8161067b565b82525050565b60006020820190506106a96000830184610685565b92915050565b600081519050919050565b600082825260208201905092915050565b6000819050602082019050919050565b6106e48161067b565b82525050565b60408201600082015161070060008501826106db565b50602082015161071360208501826106db565b50505050565b600061072583836106ea565b60408301905092915050565b6000602082019050919050565b6000610749826106af565b61075381856106ba565b935061075e836106cb565b8060005b8381101561078f5781516107768882610719565b975061078183610731565b925050600181019050610762565b5085935050505092915050565b600060208201905081810360008301526107b6818461073e565b905092915050565b600080fd5b6107cc8161067b565b81146107d757600080fd5b50565b6000813590506107e9816107c3565b92915050565b600060208284031215610805576108046107be565b5b6000610813848285016107da565b91505092915050565b60008060408385031215610833576108326107be565b5b6000610841858286016107da565b9250506020610852858286016107da565b9150509250929050565b600073ffffffffffffffffffffffffffffffffffffffff82169050919050565b60006108878261085c565b9050919050565b6108978161087c565b82525050565b60006020820190506108b2600083018461088e565b92915050565b60008115159050919050565b6108cd816108b8565b82525050565b60006020820190506108e860008301846108c4565b92915050565b60006040820190506109036000830185610685565b6109106020830184610685565b9392505050565b6109208161087c565b811461092b57600080fd5b50565b60008135905061093d81610917565b92915050565b600060208284031215610959576109586107be565b5b60006109678482850161092e565b91505092915050565b7f4e487b7100000000000000000000000000000000000000000000000000000000600052601160045260246000fd5b60006109aa8261067b565b91506109b58361067b565b92508282026109c38161067b565b915082820484148315176109da576109d9610970565b5b5092915050565b600081905092915050565b50565b60006109fc6000836109e1565b9150610a07826109ec565b600082019050919050565b6000610a1d826109ef565b9150819050919050565b600082825260208201905092915050565b6000610a45600083610a27565b9150610a50826109ec565b600082019050919050565b60006020820190508181036000830152610a7481610a38565b9050919050565b7f4661696c656420746f206465706f736974206d6f6e6579210000000000000000600082015250565b6000610ab1601883610a27565b9150610abc82610a7b565b602082019050919050565b60006020820190508181036000830152610ae081610aa4565b905091905056fea264697066735822122022e6ed7beb828daf44e6a27de47a431c0a10cf7106a74fb808bc250f0910169e64736f6c63430008110033",
  "linkReferences": {},
  "deployedLinkReferences": {}
}